:020000040000FA
:1000000008020020D5000000EF00000041020000BF
:1000100000000000000000000000000000000000E0
:10002000000000000000000000000000F3000000DD
:100030000000000000000000F5000000E7020000E2
:1000400099020000A1020000A9020000B102000014
:100050007F0100009D040000BD040000C5040000F5
:100060007102000079020000C1020000C902000014
:100070005102000059020000850400008D040000B8
:100080009504000069020000A5040000AD04000012
:10009000B504000089020000DD040000B902000080
:1000A0006F01000091020000CD040000D5040000A3
:1000B000810200006102000087010000770100005A
:1000C0000348854600F03AF8004800476101000007
:1000D0000802002009480A4A002100A1814200D9F3
:1000E0000244084802600848804708480047FEE785
:1000F000FEE7FEE7FEE7FEE7FEE700000000002067
:100100000000000008ED00E031040000C100000024
:1001100030B50B46014600202022012409E00D469F
:10012000D5409D4205D31D469540491B2546954027
:1001300040191546521E002DF1DC30BD064C01253C
:10014000064E05E0E36807CC2B430C3C984710347F
:10015000B442F7D3FFF7B8FFA0050000C0050000C8
:1001600080B500F065F900F0E3F9002080BD80B5AE
:10017000C046C04680BD80B5C046C04680BD80B583
:10018000C046C04680BD80B5C046C046C046C046D9
:1001900080BD000080B5034A8018012200F098F865
:1001A000002080BD140D0240FEB515460E4601909C
:1001B0001A49471838460C3000243146224602942A
:1001C000174B9847B00001990818164944502A78EF
:1001D00038463146124CA04738461C302A79314601
:1001E000A047384620302A7A3146A0473846243086
:1001F0002A7B3146A0472C372A7C38463146A04717
:1002000068690121C903084A13688B43C00380B29F
:1002100018431060029803B0F0BDC046000D0240C4
:10022000D1020000000C0240080F024080B5034AD2
:100230008018012200F04CF8002080BD100D024013
:1002400081B00020009000980028FCD001B07047D9
:1002500080B5C046C04680BD80B5C046C04680BDA2
:1002600080B5C046C04680BD80B5C046C04680BD92
:1002700080B5C046C04680BD80B5C046C04680BD82
:1002800080B5C046C04680BD80B5C046C04680BD72
:1002900080B5C046C04680BD80B5C046C04680BD62
:1002A00080B5C046C04680BD80B5C046C04680BD52
:1002B00080B5C046C04680BD80B5C046C04680BD42
:1002C00080B5C046C04680BD80B5C046C04680BD32
:1002D00001238B40012A02D10168194301E0016822
:1002E00099430160704780B5C046C04680BD00009C
:1002F000FEB5404807884188029181880191C688EF
:10030000048C0B20C1435B4D6858420907231A40F7
:10031000042A18D80096384892002E4601A5AA58FB
:100320003546974639030000E70300004B03000001
:1003300063030000690300002A6850480240BA4283
:100340001FD12E484FE000204DE0A868484D0540E1
:100350004B2040020122D203A54200D01046354670
:1003600041E00120C0033EE02A6B03241440032C2B
:10037000044633D12A6841480240BA4208D11F4C92
:100380002CE02A680240029CA24208D11C482AE0C4
:100390002A680240029CA24208D1194C1EE02A6839
:1003A0000240019CA24208D116481CE02A68024083
:1003B000019CA24208D1134C10E02A680240009828
:1003C000824208D011480EE02A680240009882421A
:1003D00003D00E4C02E00C4805E00B4C286B4209A0
:1003E0000F20104060436958090A1940C84003B003
:1003F000F0BDC046000C10000048E80100366E0158
:10040000408651010024F40000127A0000093D00EA
:1004100080B50A4601460248FFF75AFF002080BD1A
:100420002020004080B5FFF763FF4049086080BD91
:1004300010B50E48418B0E4A0A400E4CA1680E4B77
:100440000B401343A36000880C49014020680C4A0C
:1004500002400A432260FFF7E5FF606901210907B6
:1004600062690A436261606110BDC046080C1000F9
:10047000FF0300000C20004000FCFFFFFF0700000E
:1004800000F8FFFF80B5C046C04680BD80B5C046BD
:10049000C04680BD80B5C046C04680BD80B5C04660
:1004A000C04680BD80B5C046C04680BD80B5C04650
:1004B000C04680BD80B5C046C04680BD80B5C04640
:1004C000C04680BD80B5C046C04680BD80B5C04630
:1004D000C04680BD80B5C046C04680BD80B5C04620
:1004E000C04680BDF8B50F4C0F4961600026A6607C
:1004F000052121600D4F0CE0A6607D20C100386809
:10050000FFF706FE0849491C081AA1688142FCD879
:100510002846451E0028EFD120680121884320602D
:10052000F8BDC04610E000E0FFFFFF000000002023
:1005300070B586B01C2001242146FFF769FF00201A
:10054000009002900394C024052520462946FFF719
:1005500021FE6A4620462946FFF726FE7D20C4007C
:10056000C025052628463146FFF760FE2046FFF7E6
:10057000B9FF28463146FFF70DFE2046FFF7B2FFD0
:10058000EEE702E008C8121F08C1002AFAD170473E
:100590007047002001E001C1121F002AFBD1704703
:1005A000C0050000000000200800000082050000D7
:1005B000C8050000080000200002000092050000AD
:0805C00000093D0000000000ED
:04000005000000C136
:00000001FF
